:020000040001F9
:10B000000024002015B101002FB1010031B1010071
:10B010000000000000000000000000000000000030
:10B0200000000000000000000000000033B101003B
:10B03000000000000000000035B1010037B1010040
:10B0400039B1010039B1010065B4010039B1010025
:10B0500039B1010000000000E5B1010039B1010083
:10B0600039B1010039B1010039B1010039B1010034
:10B0700039B1010039B1010039B1010039B1010024
:10B0800039B101007DB3010039B1010039B10100CE
:10B090009DB3010039B10100A5B3010039B1010030
:10B0A00039B1010039B101000000000000000000CA
:10B0B0000000000000000000000000000000000090
:10B0C0000348854600F07CF800480047A9C301000A
:10B0D00000240020401E00BF00BF00BF00BF00BF13
:10B0E00000BF00BF00BF00BF00BF00BF00BFF1D165
:10B0F00070470000401E00BF00BF00BF00BF00BF80
:10B1000000BF00BF00BF00BF00BF00BF00BFF1D144
:10B11000704700000321094802680A43026008489A
:10B1200002680A4302600748804707480047FEE775
:10B13000FEE7FEE7FEE7FEE7FEE70000240500402D
:10B1400054050040C5B30100C1B0010030B50B4645
:10B15000014600202022012409E00D46D5409D42F1
:10B1600005D31D469540491B254695404019154677
:10B17000521E002DF1DC30BD03460B439B0703D06C
:10B1800009E008C9121F08C0042AFAD203E00B78AC
:10B190000370401C491C521EF9D27047D2B201E024
:10B1A0000270401C491EFBD270470022F6E710B522
:10B1B00013460A4604461946FFF7F0FF204610BD25
:10B1C000064C0125064E05E0E36807CC2B430C3CFA
:10B1D00098471034B442F7D3FFF776FF34CF01001D
:10B1E00054CF0100F0B50025FF248BB001340126B7
:10B1F0002F460195204601F007FB002808D047485C
:10B200004068304204D04648002120183543016090
:10B21000241D76007F1CA4B2042FEBD3FF207D30C9
:10B2200001F0F2FA002807D03E48002101604007F3
:10B2300005433D48006901903C4C280712D0012786
:10B2400000262F420AD03A48B2001118086909694D
:10B25000C004C00E8903A258890F90477F00761C56
:10B26000042EEED3002D57DA00200590401E4DE04D
:10B27000A119403108788506AD0E42B2521C39D072
:10B280000121A940089A0091114233D0800903900E
:10B29000284600F0EFFD800020580490002802D1DD
:10B2A0000398032826D103980099032802D1059812
:10B2B000084305901F4AA80080180068019A80037F
:10B2C000800F114202D0022802D013E0032811D1CE
:10B2D0000399032907D102281CD00221284601F036
:10B2E00083FA7F1CFFB20498002803D0049A2846F2
:10B2F00003999047761C042EBAD3002F0CD00A482D
:10B3000000690199884207D00190059800273E46C0
:10B310000890ADE70321E1E70BB0F0BD006300400A
:10B32000006000407C61004000050050781B002058
:10B3300000650040000700508307FF22DB0E9A40A3
:10B340008907090E994000280BDA0007000F08381A
:10B35000830808489B001818C36993430B43C361D3
:10B360007047830804489B001B18186890430843E3
:10B370001860704700ED00E000E400E010B50649F9
:10B380000020086048608860C86003494039086050
:10B39000486001F0F1FB10BD4011014010B501F013
:10B3A00081FB10BD10B506484068002805D08047D5
:10B3B000002801D000F026FA10BD00F073FE10BD89
:10B3C000D018002010B500F0A9FE002805D01F49B4
:10B3D0001D484860C8131E4988611E48018CC9B2C7
:10B3E00001290BD1828C120708D1028D1206120F8F
:10B3F000042A03D1828D1206120F0AD0012921D10D
:10B40000818C09071ED1018D0906090F0A2904D074
:10B4100007E0114A01219160F5E7828D1206120FB3
:10B4200005D00D290ED1808D0006000F0AD10B48E2
:10B430000168012904D00A49016001680129FCD191
:10B44000C021416110BD0000DFFF07C000050040C2
:10B45000006C0040C00F00F00006004000EC064009
:10B460007593000010B501F0EDFB10BD30B47446CB
:10B47000641E2578641CAB4200D21D46635D5B00F0
:10B48000E31830BC184702E008C8121F08C1002AA0
:10B49000FAD170477047002001E001C1121F002A55
:10B4A000FBD17047F7B584B0002516880746158094
:10B4B000406B1446002813D003780598032E51D30F
:10B4C0000221017021881122491C89B22180425435
:10B4D0002188491C89B2218043542088401C208047
:10B4E000386B00281DD00546208805990246123287
:10B4F000B24237D811220A5420881022401C80B250
:10B5000020800A542088401C20800F202A5C238839
:10B51000401ECA54228840B2521C22800028F5DA0C
:10B520000025384620300290807B002806D0334624
:10B530002246059900F016FE050014D10298407BC2
:10B54000002806D032462146059800F063FA05002F
:10B5500009D1B878002823D0059886462088001D98
:10B56000B04202D90C2007B0F0BD684679DF002850
:10B57000F9D1218803207246505420881921401C9B
:10B5800080B22080115420887146401C80B22080F7
:10B5900041186846008801F0E9FB218840182080A6
:10B5A000F878002817D0218803230A46FB56C91CC7
:10B5B0000598B142D6D80221815421880122491C24
:10B5C00089B2218042542188491C89B22180435488
:10B5D0002088401C20807868002817D0218800230C
:10B5E000C3560A46C91C0598B142BBD802218154F2
:10B5F00021880A22491C89B2218042542188491C91
:10B6000089B2218043542088401C2080388900283A
:10B610000AD0009438460196062202210830059B84
:10B6200001F001FC05009ED1388A00280AD0009460
:10B6300038460196072203211030059B01F0F3FBE9
:10B64000050090D1388B00280AD000943846019626
:10B65000152214211830059B01F0E5FB050082D16D
:10B66000386A002806D033462246059900F05EFC71
:10B670000500D8D1786A002806D0334622460599BD
:10B6800000F0F8FE0500CED10298007B002807D01C
:10B69000334622463846059901F080F90500C2D1AB
:10B6A0003878002807D0334622463846059900F0FE
:10B6B00015FF0500B7D1284655E7000010B592B038
:10B6C0001120694608730424072217A103A87CDF10
:10B6D000002801D000F096F85921684601801448EE
:10B6E00002900F2168468180382104A8FFF75DFD94
:10B6F000022168460174C4740D90002104A800F072
:10B7000055F9002801D000F07DF818210948FFF70D
:10B710004CFD084803210170002141600172A02204
:10B720000282418212B010BD77696E786B696E003B
:10B7300070180020001B0020044842680121C90342
:10B740000B46934383600A40C26070470005005077
:10B7500070B50024064D06E06968E000085C012130
:10B7600000F04AFF641C28788442F5D3002070BDA5
:10B770009C180020F8B515460C460646052A01D24D
:10B780000720F8BD01F00EF8002803D100F0E0FF1B
:10B790000028F6D1104900204E600C70C8608D6002
:10B7A00008610E4D0DE0E000696880190091817814
:10B7B0006A46517000780A4A694600F06DFF002819
:10B7C000DFD12046641EE4B20028ECD1054A0021F6
:10B7D000024800F023F8F8BD9C1800202CCF01008F
:10B7E00055C00100B5BF0100BFF34F8F04490348A6
:10B7F000C860BFF34F8F00BFFDE700000400FA05EB
:10B8000000ED00E00EB50021029000916A46019122
:10B810000148FFF7E9FF0EBD014000000A4B9B689D
:10B82000002B07D0002A07D0002805D00068037C31
:10B83000002B03D0082070470720704700230374B3
:10B840004174426118467047B0180020FFB5900758
:10B85000002581B014460E46002832D11B4F002C23
:10B8600031D001F001F80498786103203870334634
:10B870001821224600204B43BC601834C1008918AF
:10B880000D704D708E704C601C19401C0328F5DB48
:10B89000FD607D7001240E48BD7024050460032105
:10B8A0001420FFF749FD0B4804600B4C0198A06081
:10B8B00003211120FFF740FD60683861002005B0CA
:10B8C000F0BD0720FBE7BD60FBE70000B0180020DB
:10B8D00080E200E000E100E000150140FEB50D4609
:10B8E0001B4917468968044600292AD0002C28D015
:10B8F000052D01D20720FEBD6069002821D0607CA3
:10B90000012820D0002601F051FAC0001049019012
:10B9100089684018694601F073FA002815D00121A2
:10B9200001700C49446049680830E2C00849019838
:10B930008968411868460078487001F0F5F80020E1
:10B94000FEBD0820FEBD2E46DDE70420FEBD000042
:10B95000B018002000150140F8B5134D0446A96841
:10B9600000291CD0002C1AD06069002817D00026AE
:10B97000267401F01BFAC700A8686946381801F060
:10B980003FFA00280DD0022101704460A8683918E0
:10B9900068460078487001F0C7F83046F8BD0820C6
:10B9A000F8BD0420F8BD0000B0180020F0B50C462A
:10B9B00093B01F216A461180072600279180002836
:10B9C00009D0C17849070DD502A9FFF76BFD002802
:10B9D00009D102AD01E000251780002C0ED0E078DF
:10B9E000002802D0304613B0F0BD01AA0AA92046B3
:10B9F000FFF758FD0028F6D10AAA02E068460022A7
:10BA0000878068468088C3B268460088C1B22846ED
:10BA100072DFE8E77CB5054608880C46093090429D
:10BA200001D90C207CBD684671DF0028FAD121883D
:10BA30000820685420881B21401C80B22080295493
:10BA4000208800A9401C80B22080401906220131C4
:10BA5000FFF792FB20886946801D80B2208009781C
:10BA6000002900D0012129542088401C208000207A
:10BA70007CBD0000F8B507460024254802E0641CA0
:10BA8000022C1BD2A2008258BA42F8D1022C15D245
:10BA90001F48204E0C3800292CD001290FD0022934
:10BAA0000CD16000201880194578002D06D0194867
:10BAB00014380169002901D028468847F8BD610083
:10BAC0006118755C8E19717800290ED011490A220F
:10BAD00014394968806851430E4A133AFFF7FEFE55
:10BAE000002802D10B48143847700A48B178123840
:10BAF0000155DAE78068FFF72FFF064861006118FB
:10BB000012388919005D8D78A842CED0F8BD0000AA
:10BB100014CF01009418002070B50023022811D220
:10BB2000440004190D4D012A02D101290DD0002233
:10BB300046008019094E801900290CD0012906D031
:10BB4000022906D00723184670BD0D30C2B22A550F
:10BB5000F9E74270F7E78270F5E7000094180020DB
:10BB600010B5054A0146127A0020D20702D00846D5
:10BB700000F054F810BD00008018002070B50E468B
:10BB8000204905464E608D6000200A61A9071ED538
:10BB90000024012211462046FFF7BEFF641C022C40
:10BBA00002D20028F5D012E0002810D1720802213C
:10BBB0001548FFF7DFFD002809D1FFF7C9FD002870
:10BBC00005D11148114A00210C38FFF727FEE9077B
:10BBD00006D019220E4912038A600023CB608A61C5
:10BBE00000280DD108480B4A00211438FFF716FE33
:10BBF000002805D10448084A01211038FFF70EFE3D
:10BC000070BD0000801800201CCF010005BE01009F
:10BC100000050050E9C1010039B70100FEB5764DBD
:10BC20000922EB6812039A4302936B6800939C000D
:10BC300006461B19002001210193090407466F4C99
:10BC40003300FFF713FC180D1515374654667B7E3D
:10BC5000877E87D59494949494BEC4C7CED5D514CA
:10BC60001921029A09039143A160E7602F70FEBD7C
:10BC7000A260E7606068192212035040C00309D532
:10BC8000A160E760022E02D1E120C0000AE07D2021
:10BC9000400107E0E160A760022E01D1C82001E069
:10BCA000FF2091302E706421FFF750FA0099414334
:10BCB00000223EE0A260E760606819221203504053
:10BCC000C00303D5A160E760D011EBE7E160A76096
:10BCD000E4E7A260E7606068192212035040C003E5
:10BCE00002D5A160E760D2E7E160A760D8E7A26073
:10BCF000E7606068192212035040C00302D5A160BA
:10BD0000E76001E0E160A7602E700098410000222A
:10BD10000FE0A260E7606068192212035040C00380
:10BD200002D5A160E76001E0E160A7602E70009994
:10BD3000002233480068FFF7D1FDFEBDA260E76036
:10BD400012E06068012109030A468243A2600840AC
:10BD5000E060ECE76068012109030A468243A260C3
:10BD60000840E0600199D2E7E160A7602DE0244837
:10BD70004068FFF7F1FD11218A1B01D0002807D090
:10BD80001922E96812031140A160E760EF60FEBD6F
:10BD90000121C903E960012A0CD91046C821484392
:10BDA0006421FFF7D3F969680022414314484068D1
:10BDB000FFF794FD1922E96812031140E160A760C2
:10BDC000FEBD19210903A160E7602E70FEBD0922A6
:10BDD0001203B3E70321C903A160E760012109034E
:10BDE000C2E70121C903A160E76011210903BBE794
:10BDF00019210903B8E70000801800200005005051
:10BE000008CF010010B500780221FFF733FE10BD06
:10BE10000022D243830004490428CA5002D30818E0
:10BE20002030027770470000781B0020F0B5002515
:10BE3000ED43002A02D00023042601E00423082653
:10BE40000B4C04E09F00E7597F1C04D05B1CB342FD
:10BE5000F8D32846F0BD26185DB2203635709E0016
:10BE6000A151002AF5D1E11820310877F1E700004F
:10BE7000781B00200249091820200856704700004E
:10BE8000781B0020F8B52348C16800293ED00E6811
:10BE900021494C680769C078E11B0D022D0AED1C91
:10BEA000002814D101201D4A000450601B4A403A6A
:10BEB00050601B49400008601A4908601A49012077
:10BEC00008602F20FFF716F912490120C870B5420B
:10BED00000D23546E81900020F4B000A40331860C3
:10BEE0000D4A5168001B091B0902090A0002000AD9
:10BEF000C91C814209D9506818602F20FFF7FAF851
:10BF000001200749400480390860F8BD00F0ACFC0E
:10BF1000F8BD0000B018002000150140401301409A
:10BF200080E200E000E100E000100140F8B50646C4
:10BF3000108814468446801D0D46984201D90C2075
:10BF4000F8BD32880720062AFAD31927FF01184BBB
:10BF5000BA4201D99A42F3D171880629F0D3B94285
:10BF600001D99942ECD19A4203D0994201D08A4238
:10BF7000E6D805216046295420881221401C80B251
:10BF8000208029542088401C80B2208041193088AC
:10BF900000F0ECFE2188401880B2208041197088A2
:10BFA00000F0E4FE2188401820800020F8BD000049
:10BFB000FFFF0000F8B500260124154D23E0696855
:10BFC000F0004718387821462A698140114218D07C
:10BFD0008A432A6100F0B2FB3A782146EB6891402F
:10BFE00019400346934099420BD17978012901D039
:10BFF000012100E000217B684140002B01D0104668
:10C000009847761CF6B228788642D8D3F8BD00004F
:10C010009C18002010B50E4900234A788C78A24263
:10C0200012D0521CD2B24A70022A00D14B704A7808
:10C03000074B920018339A580260086910180002E2
:10C04000000A0861012010BD0360002010BD00003F
:10C05000B0180020F8B50746104E0125BD403068E5
:10C06000FFF77AFC00280DD10D4C2069284207D13A
:10C07000384600F063FB0028E06804D0284303E062
:10C08000A8432061F8BDA843E0602069002228434E
:10C090002061A1683068FFF721FCF8BD2CCF0100BA
:10C0A0009C180020F8B51C4C2078002833D020695B
:10C0B000002807D00026E068002805D00025002EC3
:10C0C00004D011E00126F6E70125F8E7684652DFC3
:10C0D000052804D0002804D0FFF794FB04E00126D3
:10C0E00002E0216900988847002D10D160886946D8
:10C0F0000880A06861DF052804D0002804D0FFF77D
:10C1000081FB04E0012502E0E168A0688847002E79
:10C11000DCD0002DD3D0F8BDD01800201048018C01
:10C12000C9B2012917D1818C090714D1018D0906E3
:10C130000A0F03D1828D1206120F0ED0090F0129AA
:10C1400003D1828D1206120F07D0032903D1808DEF
:10C150000006000F01D0002070470120704700004A
:10C16000C00F00F030B51588EC1C9C4201D90C20A2
:10C1700030BD02244C5513881C255B1C9BB21380D8
:10C18000CD5413885B1C9BB21380012807D0022872
:10C1900007D0032807D0042807D0072030BD00208F
:10C1A00004E0012002E0CC5401E00320C8541088D0
:10C1B000401C1080002030BD10B5162000F00CFB94
:10C1C000142000F009FB10BD012181400148C1602D
:10C1D0007047000000050050012181400148816046
:10C1E000704700000005005010B50448017AC907E7
:10C1F00002D00078FFF712FD10BD0000801800206B
:10C2000010B51420FFF7E8FF7D20C00000F0B6F95C
:10C210001420FFF7D9FF10BDF8B52C49C8680A698A
:10C220000C780F7989688646944600913EE0009923
:10C23000E20055182A7836E0182353436968521CE7
:10C24000C918AB78D2B2934200D100220B78022BEE
:10C2500002D0032B27D123E04E680346014603E0BA
:10C26000B14204D00B46C96900291CD0F8E7002967
:10C2700019D08B4208D1C069002805D1144F01267E
:10C28000BE600026B44601270E68C969D96100293D
:10C2900009D00B689B190B6005E00174C06900E0D0
:10C2A00000210028F9D169789142C5D12146641E48
:10C2B000E4B20029BBD1054962460A61C8600F712A
:10C2C000704501D00120F8BD0020F8BDB018002055
:10C2D00000100140F8B5044631480026C1680091BD
:10C2E00007784EE02E48F90080680D1843E0002CD6
:10C2F00002D02046E4691FE02878182141436A688B
:10C30000401CC0B251182870AA78904200D12E70FB
:10C310000A784868012A30D1027C002A2DD18A6827
:10C320004260CA6882600A69C260496981611C49C9
:10C330000979002900D04660194943680A699C467A
:10C34000991A0902174B090A994202D28268891880
:10C3500007E06146511A09028268090A8A4202D935
:10C36000511A016000E00660466001218660017498
:10C37000C66100F0E1FB002CB9D1287869788842C9
:10C38000BAD138467F1EFFB20028ABD10448C1683D
:10C390000098814201D00120F8BD0020F8BD0000C6
:10C3A000B0180020FFFF7F00002386B02C4A052133
:10C3B0001846FFF74BFA002801D0FFF723FA0022B6
:10C3C00028490120FFF7DAFB002801D0FFF71AFA0D
:10C3D000254823490068059000234822483905A8CC
:10C3E00000F046FB002801D0FFF70CFA00216A4656
:10C3F000084600F025FB002801D0FFF703FA1B4890
:10C4000000F07EFA002801D0FFF7FCF9684600F042
:10C410000DFB002801D0FFF7F5F9FFF74FF9FFF703
:10C42000CBFE134873DF002801D0FFF7EBF90220A1
:10C43000FFF796FB002801D0FFF7E4F91620FFF77D
:10C44000CBFE7D24240100F097FCFFF7D9FE2046A7
:10C4500000F094F848DF0028F5D0FFF7D3F9F2E7B1
:10C4600038190020CD0C000004CF01007018002006
:10C47000001B002070B5144682880E4605462088B1
:10C48000111D4118921C994201D8FE2A01D90C2095
:10C4900070BD521C32542088FF21401C80B2208085
:10C4A00031542088401C80B220808119288800F0F7
:10C4B0005DFC2188401880B22080AA88002A09D01B
:10C4C000A968002908D08019FEF756FE2088A9889F
:10C4D00040182080002070BD072070BDF8B50F46C1
:10C4E000017814460546012902D16878002806D053
:10C4F0002088821C9A422DD8012902D006E007200C
:10C50000F8BD69784118891C994223D8181A801EF1
:10C5100086B2684606802188B81C081869467DDF07
:10C520000028EDD12878022805D169460988B14252
:10C5300001D809210AE00821012805D16878B04214
:10C5400002D86A46108001E0684606806846008886
:10C55000FE2801D90C20F8BD2288401CB854208840
:10C56000401C80B22080395420886946401C2080BD
:10C570000988401820800020F8BD000031B5054C26
:10C5800004E0401E00902046FEF7A4FD009800281D
:10C59000F7D138BDE70300008207D30EFF229A408F
:10C5A0008907090E10B5994000280BDA03071B0F05
:10C5B000083B9C080C4BA400E318DC6994430C4333
:10C5C000DC6107E08408094BA400E4182368934366
:10C5D0000B432360C106C90E01208840044908604E
:10C5E0000449086010BD000000ED00E000E400E038
:10C5F00080E200E000E100E0F3B581B00F46019871
:10C6000000F01AF9012400281E4E019817D0FFF7F8
:10C6100031FC80192030007F8009032802D00128D6
:10C6200006D007E01848006901998C40204201D1EA
:10C63000022100E00321019800F0D6F8FEBD00F0D1
:10C6400007F90028FAD00198FFF714FC054681008D
:10C65000C81D0E4AF93089180A6980B222430A615E
:10C660000B49401800210160002FE7D00198FFF727
:10C6700001FC800030580028E0D00648AC404460FF
:10C68000FEBD0000781B0020000500500065004042
:10C690000060004000630040FEB5044623480E469B
:10C6A0000019202141560027C8171346401C01D00D
:10C6B000082738E0F27819462046FFF7B7FB054611
:10C6C000401C2FD0B078002807D01948A1000918C5
:10C6D000086802229043086007E000217378204632
:10C6E00000910A46019100F065F8F078002810D01A
:10C6F0001048AA001018317802690F4B1A400261E5
:10C70000E206D20C8907890B0A4301690A430261D8
:10C7100009E00648327840192030017F9201114328
:10C72000017700E004273846FEBD0000781B00209A
:10C730000007005000650040FFE0FCFF0349096965
:10C74000C140C807C00F00D001207047000500504D
:10C7500070B5124D2879002801D0082070BD0F490E
:10C7600000204039421E0B182033401CC0B21A7002
:10C770002028F8D300242046FFF74AFB641CE4B2CB
:10C78000082CF8D303210620FFF706FF01200449F7
:10C79000C007486001202871002070BDB81B002030
:10C7A0000063004002480079002800D00120704753
:10C7B000B81B002030B552000A439900039C0A437D
:10C7C0002102049D0A4329040A43024980004018BB
:10C7D000026030BD00070050024A0321800080182B
:10C7E0000160704700070050820006481018026878
:10C7F00003231B049A430260026809040A4302608F
:10C8000070470000000700500349401800680128E5
:10C8100000D0002070470000006000404058002811
:10C8200000D001207047032212028018406808409F
:10C8300000D001207047000004490818202141560B
:10C84000042901DB0120704700207047781B00207D
:10C850000449081820214156042901D201207047BB
:10C8600000207047781B002070B501240B4960043C
:10C8700008600B4940108860094940398860094DBB
:10C880006C602F20FEF736FCAC60074D00242F2093
:10C890002C61FEF72FFCEC7070BD000080E100E021
:10C8A0004013014000100140B018002030B50A4884
:10C8B000FF21C57D0022094C0931094B002D625032
:10C8C00007D09969437EC268D154417E491C4176A4
:10C8D00030BD986930BD0000C01B00200020004022
:10C8E000002500401FB501236A46137010720348EB
:10C8F000019106C8684690471FBD0000C01B00207C
:10C9000008B502490020009108BD00007018002001
:10C9100010B50121202805DA1A4A8140114201D1BF
:10C92000194810BD8107C90E002808DA0207120F46
:10C93000083A9208154B9200D218D26904E0820896
:10C94000134B9200D2181268CA401106890F0429AD
:10C9500011D200290FD002290DD00E494C68C30610
:10C96000DB0E01229A40002C08D0400980000B58B1
:10C9700013430B5004E00448401C10BD06480260FD
:10C98000002010BDFC06FFBC0120000000ED00E00F
:10C9900000E400E0E418002000E100E0FFB50746F5
:10C9A000806A81B0144600283DD0002538462030EA
:10C9B000009033E00C20B96A68430E18B088801CE0
:10C9C000FE2802D90C2005B0F0BD22880299401C37
:10C9D000885420881622401C80B2208002990A5474
:10C9E0002088401C80B2208002994118308800F0D5
:10C9F000BDF92188401880B22080B288002A0AD070
:10CA0000B16800290FD0029BC018FEF7B5FB208843
:10CA1000B188401820806D1C0098EDB2007BA842C0
:10CA2000C8D80020CFE70720CDE700001CB5034998
:10CA300001910091694660DF1CBD00007018002064
:10CA400070B50E460546144614211046FEF7ADFBA0
:10CA50000120002120802161217326726572002D42
:10CA600000D0A072002070BD10B5FEF7BDFE10BD55
:10CA700070B5002901D08C0701D0072070BD074C8C
:10CA80000125A16062800649636010DF0028F5D1AE
:10CA900025701620FFF73CFF70BD0000D018002065
:10CAA00069CA0100FEB51F4C00252769E0680290A5
:10CAB0006846FFF7AFFA0190FFF7AEFB0646019814
:10CAC000002822D000230098E16817E00E680A468B
:10CAD000864202D9301A086012E0801BF318002643
:10CAE0001660D668D169B446002E07D0FE1836020B
:10CAF000360A566066469660D56115460029E5D12E
:10CB00002846E160FFF7E6FB06E02846FFF7E2FB78
:10CB1000002801D1002E02D00298FFF7B3F90020BF
:10CB20002071FEBDB01800200120024900050860F8
:10CB30007047000000E200E010B50E4BD9680029F4
:10CB400006D002680C68A24204D8A21A0A60C16129
:10CB5000D86010BD0B4604E00B46C969121B0029C2
:10CB600004D00C689442F7D3A41A0C600260C1612F
:10CB7000D86110BDB0180020F8B51D4DEC68002C30
:10CB800034D01C48002740682969401A0602360A3A
:10CB90002068B04218D8361AC7192246107CE469BA
:10CBA00000280FD0002010746B69002B07D091690A
:10CBB00050699847002805D0FEF724FE02E051692D
:10CBC00090698847002CE3D16978A878814206D122
:10CBD000401CC0B2A870022801D10020A8700449EE
:10CBE0000006800D18310F50FFF79EFFF8BD0000C2
:10CBF000B018002000150140FF2107481D31002218
:10CC000042500648828A8168895C828A521C8282EC
:10CC10000348C1617047000000200040C01B002095
:10CC2000002500401FB500216A46117010720448AB
:10CC300082680192817506C8684690471FBD000052
:10CC4000C01B0020F0B5454D012185B049022846A2
:10CC5000FFF7E9FD01270026414C002824D0FF21E1
:10CC600025312846FFF7DAFD00281DD0FF202530AA
:10CC70002E5081203B4980008860A07E002800D192
:10CC80006F600221684601703749086808600390A8
:10CC9000E17D68460172E0680190E675267606CC73
:10CCA0006846083C90472BE004212846FFF7BBFD6F
:10CCB000002825D0FF2109312846FFF7AFFD0028C5
:10CCC0001ED0FFF7F3FDE07D617E884218D1207E03
:10CCD000002808D0627EE168E0752069E060267671
:10CCE000667610460AE0A07E002800D16F608120A1
:10CCF0001C4980008860E675607EE168FFF7F2FD00
:10CD0000FF211D312846FFF789FD00280DD0A18A9B
:10CD1000A07D814202D2FFF76FFF06E0FF211D31A7
:10CD20006E50002801D0FFF77DFFFF2145312846D6
:10CD3000FFF774FD00280ED0FF2045302E50A07E56
:10CD4000002800D02F60E07D002804D0E675607ECA
:10CD5000E168FFF7C7FD05B0F0BD0000002000400E
:10CD6000C01B002000230040802400400870000AFF
:10CD700048700220704700000EB50A4802900F204C
:10CD80006946888074DF084873DF002801D0FEF709
:10CD900039FD0220FEF7E4FE002801D0FEF732FD47
:10CDA0000EBD000070180020001B0020EFF305806E
:10CDB000C005C00D1AD0103840B2002808DA0107AB
:10CDC000090F083989080C4A89008918C96904E0E3
:10CDD00081080A4A8900891809688007C00EC14085
:10CDE0000806800F012803D0032803D002207047D3
:10CDF000002070470120704700ED00E000E400E0F3
:10CE000042788378521CD2B2934200D10022037838
:10CE1000934201D1002070470A704168407818227F
:10CE2000504308187047FFB583B016460C9D0D9C03
:10CE30001F46022200950194039800F00CF8002888
:10CE400007D13B461022314600950194039800F02B
:10CE500002F807B0F0BDFFB583B0074600200C9C78
:10CE60008646268805463AE07868A9004218118867
:10CE7000684681805188C1800022694601A865DF2B
:10CE8000002839D1684601780598814226D170463C
:10CE9000002801D0002200E00222208889184218D0
:10CEA0000D998A4227D8714600290AD1401C80B2C8
:10CEB0002080069A049911542088401C208001206B
:10CEC0008646218806980A18694601A865DF002869
:10CED00012D1694620880978401820806D1C388856
:10CEE000A842C1DC704600280AD02088801B401E62
:10CEF00080B2FF2802D90C2007B0F0BD06998855F2
:10CF00000020F9E701000007181B0020381B002053
:10CF1000581B002008000000120000000800030059
:10CF200075BA01001200030075BA0100DC1B002075
:10CF30000300000054CF01007018002080000000A2
:10CF400086B40100D4CF0100F0180020100B0000BF
:10CF500096B40100626561636F6E736465766963A0
:10CF600065303100000000000000000000000000FB
:10CF700000000000000000000000000000000000B1
:10CF800000000000000000000000000000000000A1
:10CF90000000000000000000000000000000000091
:10CFA0000000000000000000000000000000000081
:10CFB0000000000000000000000000000000000071
:10CFC0000000000000000000000000000000000061
:04CFD0000024F40045
:040000050001B0C185
:00000001FF
